{
  "_format": "hh3-artifact-1",
  "contractName": "Dorz",
  "sourceName": "contracts/Dorz.sol",
  "abi": [
    {
      "inputs": [],
      "stateMutability": "nonpayable",
      "type": "constructor"
    },
    {
      "inputs": [
        {
          "internalType": "address",
          "name": "target",
          "type": "address"
        }
      ],
      "name": "AddressEmptyCode",
      "type": "error"
    },
    {
      "inputs": [
        {
          "internalType": "address",
          "name": "implementation",
          "type": "address"
        }
      ],
      "name": "ERC1967InvalidImplementation",
      "type": "error"
    },
    {
      "inputs": [],
      "name": "ERC1967NonPayable",
      "type": "error"
    },
    {
      "inputs": [
        {
          "internalType": "address",
          "name": "spender",
          "type": "address"
        },
        {
          "internalType": "uint256",
          "name": "allowance",
          "type": "uint256"
        },
        {
          "internalType": "uint256",
          "name": "needed",
          "type": "uint256"
        }
      ],
      "name": "ERC20InsufficientAllowance",
      "type": "error"
    },
    {
      "inputs": [
        {
          "internalType": "address",
          "name": "sender",
          "type": "address"
        },
        {
          "internalType": "uint256",
          "name": "balance",
          "type": "uint256"
        },
        {
          "internalType": "uint256",
          "name": "needed",
          "type": "uint256"
        }
      ],
      "name": "ERC20InsufficientBalance",
      "type": "error"
    },
    {
      "inputs": [
        {
          "internalType": "address",
          "name": "approver",
          "type": "address"
        }
      ],
      "name": "ERC20InvalidApprover",
      "type": "error"
    },
    {
      "inputs": [
        {
          "internalType": "address",
          "name": "receiver",
          "type": "address"
        }
      ],
      "name": "ERC20InvalidReceiver",
      "type": "error"
    },
    {
      "inputs": [
        {
          "internalType": "address",
          "name": "sender",
          "type": "address"
        }
      ],
      "name": "ERC20InvalidSender",
      "type": "error"
    },
    {
      "inputs": [
        {
          "internalType": "address",
          "name": "spender",
          "type": "address"
        }
      ],
      "name": "ERC20InvalidSpender",
      "type": "error"
    },
    {
      "inputs": [],
      "name": "FailedCall",
      "type": "error"
    },
    {
      "inputs": [],
      "name": "InvalidInitialization",
      "type": "error"
    },
    {
      "inputs": [],
      "name": "NotInitializing",
      "type": "error"
    },
    {
      "inputs": [
        {
          "internalType": "address",
          "name": "owner",
          "type": "address"
        }
      ],
      "name": "OwnableInvalidOwner",
      "type": "error"
    },
    {
      "inputs": [
        {
          "internalType": "address",
          "name": "account",
          "type": "address"
        }
      ],
      "name": "OwnableUnauthorizedAccount",
      "type": "error"
    },
    {
      "inputs": [],
      "name": "UUPSUnauthorizedCallContext",
      "type": "error"
    },
    {
      "inputs": [
        {
          "internalType": "bytes32",
          "name": "slot",
          "type": "bytes32"
        }
      ],
      "name": "UUPSUnsupportedProxiableUUID",
      "type": "error"
    },
    {
      "anonymous": false,
      "inputs": [
        {
          "indexed": true,
          "internalType": "address",
          "name": "owner",
          "type": "address"
        },
        {
          "indexed": true,
          "internalType": "address",
          "name": "spender",
          "type": "address"
        },
        {
          "indexed": false,
          "internalType": "uint256",
          "name": "value",
          "type": "uint256"
        }
      ],
      "name": "Approval",
      "type": "event"
    },
    {
      "anonymous": false,
      "inputs": [
        {
          "indexed": false,
          "internalType": "uint64",
          "name": "version",
          "type": "uint64"
        }
      ],
      "name": "Initialized",
      "type": "event"
    },
    {
      "anonymous": false,
      "inputs": [
        {
          "indexed": true,
          "internalType": "address",
          "name": "previousOwner",
          "type": "address"
        },
        {
          "indexed": true,
          "internalType": "address",
          "name": "newOwner",
          "type": "address"
        }
      ],
      "name": "OwnershipTransferred",
      "type": "event"
    },
    {
      "anonymous": false,
      "inputs": [
        {
          "indexed": true,
          "internalType": "address",
          "name": "from",
          "type": "address"
        },
        {
          "indexed": true,
          "internalType": "address",
          "name": "to",
          "type": "address"
        },
        {
          "indexed": false,
          "internalType": "uint256",
          "name": "value",
          "type": "uint256"
        }
      ],
      "name": "Transfer",
      "type": "event"
    },
    {
      "anonymous": false,
      "inputs": [
        {
          "indexed": true,
          "internalType": "address",
          "name": "implementation",
          "type": "address"
        }
      ],
      "name": "Upgraded",
      "type": "event"
    },
    {
      "inputs": [],
      "name": "UPGRADE_INTERFACE_VERSION",
      "outputs": [
        {
          "internalType": "string",
          "name": "",
          "type": "string"
        }
      ],
      "stateMutability": "view",
      "type": "function"
    },
    {
      "inputs": [
        {
          "internalType": "address",
          "name": "owner",
          "type": "address"
        },
        {
          "internalType": "address",
          "name": "spender",
          "type": "address"
        }
      ],
      "name": "allowance",
      "outputs": [
        {
          "internalType": "uint256",
          "name": "",
          "type": "uint256"
        }
      ],
      "stateMutability": "view",
      "type": "function"
    },
    {
      "inputs": [
        {
          "internalType": "address",
          "name": "spender",
          "type": "address"
        },
        {
          "internalType": "uint256",
          "name": "value",
          "type": "uint256"
        }
      ],
      "name": "approve",
      "outputs": [
        {
          "internalType": "bool",
          "name": "",
          "type": "bool"
        }
      ],
      "stateMutability": "nonpayable",
      "type": "function"
    },
    {
      "inputs": [
        {
          "internalType": "address",
          "name": "account",
          "type": "address"
        }
      ],
      "name": "balanceOf",
      "outputs": [
        {
          "internalType": "uint256",
          "name": "",
          "type": "uint256"
        }
      ],
      "stateMutability": "view",
      "type": "function"
    },
    {
      "inputs": [],
      "name": "decimals",
      "outputs": [
        {
          "internalType": "uint8",
          "name": "",
          "type": "uint8"
        }
      ],
      "stateMutability": "view",
      "type": "function"
    },
    {
      "inputs": [],
      "name": "initialize",
      "outputs": [],
      "stateMutability": "nonpayable",
      "type": "function"
    },
    {
      "inputs": [],
      "name": "name",
      "outputs": [
        {
          "internalType": "string",
          "name": "",
          "type": "string"
        }
      ],
      "stateMutability": "view",
      "type": "function"
    },
    {
      "inputs": [],
      "name": "owner",
      "outputs": [
        {
          "internalType": "address",
          "name": "",
          "type": "address"
        }
      ],
      "stateMutability": "view",
      "type": "function"
    },
    {
      "inputs": [],
      "name": "proxiableUUID",
      "outputs": [
        {
          "internalType": "bytes32",
          "name": "",
          "type": "bytes32"
        }
      ],
      "stateMutability": "view",
      "type": "function"
    },
    {
      "inputs": [],
      "name": "renounceOwnership",
      "outputs": [],
      "stateMutability": "nonpayable",
      "type": "function"
    },
    {
      "inputs": [],
      "name": "symbol",
      "outputs": [
        {
          "internalType": "string",
          "name": "",
          "type": "string"
        }
      ],
      "stateMutability": "view",
      "type": "function"
    },
    {
      "inputs": [],
      "name": "totalSupply",
      "outputs": [
        {
          "internalType": "uint256",
          "name": "",
          "type": "uint256"
        }
      ],
      "stateMutability": "view",
      "type": "function"
    },
    {
      "inputs": [
        {
          "internalType": "address",
          "name": "to",
          "type": "address"
        },
        {
          "internalType": "uint256",
          "name": "value",
          "type": "uint256"
        }
      ],
      "name": "transfer",
      "outputs": [
        {
          "internalType": "bool",
          "name": "",
          "type": "bool"
        }
      ],
      "stateMutability": "nonpayable",
      "type": "function"
    },
    {
      "inputs": [
        {
          "internalType": "address",
          "name": "from",
          "type": "address"
        },
        {
          "internalType": "address",
          "name": "to",
          "type": "address"
        },
        {
          "internalType": "uint256",
          "name": "value",
          "type": "uint256"
        }
      ],
      "name": "transferFrom",
      "outputs": [
        {
          "internalType": "bool",
          "name": "",
          "type": "bool"
        }
      ],
      "stateMutability": "nonpayable",
      "type": "function"
    },
    {
      "inputs": [
        {
          "internalType": "address",
          "name": "newOwner",
          "type": "address"
        }
      ],
      "name": "transferOwnership",
      "outputs": [],
      "stateMutability": "nonpayable",
      "type": "function"
    },
    {
      "inputs": [
        {
          "internalType": "address",
          "name": "newImplementation",
          "type": "address"
        },
        {
          "internalType": "bytes",
          "name": "data",
          "type": "bytes"
        }
      ],
      "name": "upgradeToAndCall",
      "outputs": [],
      "stateMutability": "payable",
      "type": "function"
    }
  ],
  "bytecode": "0x60a060405230608052348015610013575f5ffd5b5061001c610021565b6100d3565b7ff0c57e16840df040f15088dc2f81fe391c3923bec73e23a9662efc9c229c6a00805468010000000000000000900460ff16156100715760405163f92ee8a960e01b815260040160405180910390fd5b80546001600160401b03908116146100d05780546001600160401b0319166001600160401b0390811782556040519081527fc7f505b2f371ae2175ee4913f4499e1f2633a7b5936321eed1cdaeb6115181d29060200160405180910390a15b50565b6080516113e36100f95f395f8181610797015281816107c001526108ff01526113e35ff3fe6080604052600436106100ef575f3560e01c8063715018a611610087578063a9059cbb11610057578063a9059cbb146102ae578063ad3cb1cc146102cd578063dd62ed3e146102fd578063f2fde38b1461031c575f5ffd5b8063715018a61461022c5780638129fc1c146102405780638da5cb5b1461025457806395d89b411461029a575f5ffd5b8063313ce567116100c2578063313ce567146101a85780634f1ef286146101c357806352d1902d146101d857806370a08231146101ec575f5ffd5b806306fdde03146100f3578063095ea7b31461011d57806318160ddd1461014c57806323b872dd14610189575b5f5ffd5b3480156100fe575f5ffd5b5061010761033b565b6040516101149190610f06565b60405180910390f35b348015610128575f5ffd5b5061013c610137366004610f56565b6103fb565b6040519015158152602001610114565b348015610157575f5ffd5b507f52c63247e1f47db19d5ce0460030c497f067ca4cebf71ba98eeadabe20bace02545b604051908152602001610114565b348015610194575f5ffd5b5061013c6101a3366004610f7e565b610414565b3480156101b3575f5ffd5b5060405160128152602001610114565b6101d66101d1366004610fcc565b610439565b005b3480156101e3575f5ffd5b5061017b610458565b3480156101f7575f5ffd5b5061017b610206366004611090565b6001600160a01b03165f9081525f51602061136e5f395f51905f52602052604090205490565b348015610237575f5ffd5b506101d6610473565b34801561024b575f5ffd5b506101d6610486565b34801561025f575f5ffd5b507f9016d09d72d40fdae2fd8ceac6b6234c7706214fd39c1cd1e609a0528c199300546040516001600160a01b039091168152602001610114565b3480156102a5575f5ffd5b506101076105e3565b3480156102b9575f5ffd5b5061013c6102c8366004610f56565b610621565b3480156102d8575f5ffd5b50610107604051806040016040528060058152602001640352e302e360dc1b81525081565b348015610308575f5ffd5b5061017b6103173660046110a9565b61062e565b348015610327575f5ffd5b506101d6610336366004611090565b610677565b7f52c63247e1f47db19d5ce0460030c497f067ca4cebf71ba98eeadabe20bace0380546060915f51602061136e5f395f51905f5291610379906110da565b80601f01602080910402602001604051908101604052809291908181526020018280546103a5906110da565b80156103f05780601f106103c7576101008083540402835291602001916103f0565b820191905f5260205f20905b8154815290600101906020018083116103d357829003601f168201915b505050505091505090565b5f336104088185856106b9565b60019150505b92915050565b5f336104218582856106cb565b61042c85858561072f565b60019150505b9392505050565b61044161078c565b61044a82610830565b6104548282610838565b5050565b5f6104616108f4565b505f51602061138e5f395f51905f5290565b61047b61093d565b6104845f610998565b565b5f61048f610a08565b805490915060ff600160401b820416159067ffffffffffffffff165f811580156104b65750825b90505f8267ffffffffffffffff1660011480156104d25750303b155b9050811580156104e0575080155b156104fe5760405163f92ee8a960e01b815260040160405180910390fd5b845467ffffffffffffffff19166001178555831561052857845460ff60401b1916600160401b1785555b61056a604051806040016040528060048152602001632227a92d60e11b815250604051806040016040528060048152602001632227a92d60e11b815250610a30565b61057333610a42565b610596336105836012600a611209565b61059190633b9aca00611217565b610a53565b83156105dc57845460ff60401b19168555604051600181527fc7f505b2f371ae2175ee4913f4499e1f2633a7b5936321eed1cdaeb6115181d29060200160405180910390a15b5050505050565b7f52c63247e1f47db19d5ce0460030c497f067ca4cebf71ba98eeadabe20bace0480546060915f51602061136e5f395f51905f5291610379906110da565b5f3361040881858561072f565b6001600160a01b039182165f9081527f52c63247e1f47db19d5ce0460030c497f067ca4cebf71ba98eeadabe20bace016020908152604080832093909416825291909152205490565b61067f61093d565b6001600160a01b0381166106ad57604051631e4fbdf760e01b81525f60048201526024015b60405180910390fd5b6106b681610998565b50565b6106c68383836001610a87565b505050565b5f6106d6848461062e565b90505f19811015610729578181101561071b57604051637dc7a0d960e11b81526001600160a01b038416600482015260248101829052604481018390526064016106a4565b61072984848484035f610a87565b50505050565b6001600160a01b03831661075857604051634b637e8f60e11b81525f60048201526024016106a4565b6001600160a01b0382166107815760405163ec442f0560e01b81525f60048201526024016106a4565b6106c6838383610b6a565b306001600160a01b037f000000000000000000000000000000000000000000000000000000000000000016148061081257507f00000000000000000000000000000000000000000000000000000000000000006001600160a01b03166108065f51602061138e5f395f51905f52546001600160a01b031690565b6001600160a01b031614155b156104845760405163703e46dd60e11b815260040160405180910390fd5b6106b661093d565b816001600160a01b03166352d1902d6040518163ffffffff1660e01b8152600401602060405180830381865afa925050508015610892575060408051601f3d908101601f1916820190925261088f9181019061122e565b60015b6108ba57604051634c9c8ce360e01b81526001600160a01b03831660048201526024016106a4565b5f51602061138e5f395f51905f5281146108ea57604051632a87526960e21b8152600481018290526024016106a4565b6106c68383610ca3565b306001600160a01b037f000000000000000000000000000000000000000000000000000000000000000016146104845760405163703e46dd60e11b815260040160405180910390fd5b3361096f7f9016d09d72d40fdae2fd8ceac6b6234c7706214fd39c1cd1e609a0528c199300546001600160a01b031690565b6001600160a01b0316146104845760405163118cdaa760e01b81523360048201526024016106a4565b7f9016d09d72d40fdae2fd8ceac6b6234c7706214fd39c1cd1e609a0528c19930080546001600160a01b031981166001600160a01b03848116918217845560405192169182907f8be0079c531659141344cd1fd0a4f28419497f9722a3daafe3b4186f6b6457e0905f90a3505050565b5f807ff0c57e16840df040f15088dc2f81fe391c3923bec73e23a9662efc9c229c6a0061040e565b610a38610cf8565b6104548282610d1d565b610a4a610cf8565b6106b681610d6d565b6001600160a01b038216610a7c5760405163ec442f0560e01b81525f60048201526024016106a4565b6104545f8383610b6a565b5f51602061136e5f395f51905f526001600160a01b038516610abe5760405163e602df0560e01b81525f60048201526024016106a4565b6001600160a01b038416610ae757604051634a1406b160e11b81525f60048201526024016106a4565b6001600160a01b038086165f908152600183016020908152604080832093881683529290522083905581156105dc57836001600160a01b0316856001600160a01b03167f8c5be1e5ebec7d5bd14f71427d1e84f3dd0314c0f7b2291e5b200ac8c7c3b92585604051610b5b91815260200190565b60405180910390a35050505050565b5f51602061136e5f395f51905f526001600160a01b038416610ba45781816002015f828254610b999190611245565b90915550610c149050565b6001600160a01b0384165f9081526020829052604090205482811015610bf65760405163391434e360e21b81526001600160a01b038616600482015260248101829052604481018490526064016106a4565b6001600160a01b0385165f9081526020839052604090209083900390555b6001600160a01b038316610c32576002810180548390039055610c50565b6001600160a01b0383165f9081526020829052604090208054830190555b826001600160a01b0316846001600160a01b03167fddf252ad1be2c89b69c2b068fc378daa952ba7f163c4a11628f55a4df523b3ef84604051610c9591815260200190565b60405180910390a350505050565b610cac82610d75565b6040516001600160a01b038316907fbc7cd75a20ee27fd9adebab32041f755214dbc6bffa90cc0225b39da2e5c2d3b905f90a2805115610cf0576106c68282610dd8565b610454610e4a565b610d00610e69565b61048457604051631afcd79f60e31b815260040160405180910390fd5b610d25610cf8565b5f51602061136e5f395f51905f527f52c63247e1f47db19d5ce0460030c497f067ca4cebf71ba98eeadabe20bace03610d5e848261129c565b5060048101610729838261129c565b61067f610cf8565b806001600160a01b03163b5f03610daa57604051634c9c8ce360e01b81526001600160a01b03821660048201526024016106a4565b5f51602061138e5f395f51905f5280546001600160a01b0319166001600160a01b0392909216919091179055565b60605f5f846001600160a01b031684604051610df49190611357565b5f60405180830381855af49150503d805f8114610e2c576040519150601f19603f3d011682016040523d82523d5f602084013e610e31565b606091505b5091509150610e41858383610e82565b95945050505050565b34156104845760405163b398979f60e01b815260040160405180910390fd5b5f610e72610a08565b54600160401b900460ff16919050565b606082610e9757610e9282610ede565b610432565b8151158015610eae57506001600160a01b0384163b155b15610ed757604051639996b31560e01b81526001600160a01b03851660048201526024016106a4565b5080610432565b805115610eed57805160208201fd5b60405163d6bda27560e01b815260040160405180910390fd5b602081525f82518060208401528060208501604085015e5f604082850101526040601f19601f83011684010191505092915050565b80356001600160a01b0381168114610f51575f5ffd5b919050565b5f5f60408385031215610f67575f5ffd5b610f7083610f3b565b946020939093013593505050565b5f5f5f60608486031215610f90575f5ffd5b610f9984610f3b565b9250610fa760208501610f3b565b929592945050506040919091013590565b634e487b7160e01b5f52604160045260245ffd5b5f5f60408385031215610fdd575f5ffd5b610fe683610f3b565b9150602083013567ffffffffffffffff811115611001575f5ffd5b8301601f81018513611011575f5ffd5b803567ffffffffffffffff81111561102b5761102b610fb8565b604051601f8201601f19908116603f0116810167ffffffffffffffff8111828210171561105a5761105a610fb8565b604052818152828201602001871015611071575f5ffd5b816020840160208301375f602083830101528093505050509250929050565b5f602082840312156110a0575f5ffd5b61043282610f3b565b5f5f604083850312156110ba575f5ffd5b6110c383610f3b565b91506110d160208401610f3b565b90509250929050565b600181811c908216806110ee57607f821691505b60208210810361110c57634e487b7160e01b5f52602260045260245ffd5b50919050565b634e487b7160e01b5f52601160045260245ffd5b6001815b60018411156111615780850481111561114557611145611112565b600184161561115357908102905b60019390931c92800261112a565b935093915050565b5f826111775750600161040e565b8161118357505f61040e565b816001811461119957600281146111a3576111bf565b600191505061040e565b60ff8411156111b4576111b4611112565b50506001821b61040e565b5060208310610133831016604e8410600b84101617156111e2575081810a61040e565b6111ee5f198484611126565b805f190482111561120157611201611112565b029392505050565b5f61043260ff841683611169565b808202811582820484141761040e5761040e611112565b5f6020828403121561123e575f5ffd5b5051919050565b8082018082111561040e5761040e611112565b601f8211156106c657805f5260205f20601f840160051c8101602085101561127d5750805b601f840160051c820191505b818110156105dc575f8155600101611289565b815167ffffffffffffffff8111156112b6576112b6610fb8565b6112ca816112c484546110da565b84611258565b6020601f8211600181146112fc575f83156112e55750848201515b5f19600385901b1c1916600184901b1784556105dc565b5f84815260208120601f198516915b8281101561132b578785015182556020948501946001909201910161130b565b508482101561134857868401515f19600387901b60f8161c191681555b50505050600190811b01905550565b5f82518060208501845e5f92019182525091905056fe52c63247e1f47db19d5ce0460030c497f067ca4cebf71ba98eeadabe20bace00360894a13ba1a3210667c828492db98dca3e2076cc3735a920a3ca505d382bbca2646970667358221220158c3328ac5f19263f87392b5b976c19377de590190e411161f35b3fee406e9c64736f6c634300081c0033",
  "linkReferences": {},
  "deployedLinkReferences": {},
  "immutableReferences": {
    "1613": [
      {
        "length": 32,
        "start": 1943
      },
      {
        "length": 32,
        "start": 1984
      },
      {
        "length": 32,
        "start": 2303
      }
    ]
  },
  "inputSourceName": "project/contracts/Dorz.sol",
  "buildInfoId": "solc-0_8_28-a238c8cecfe85ae024558481d2c15755b1367cd8"
}