{
  "_format": "hh3-artifact-1",
  "contractName": "Vesting",
  "sourceName": "contracts/Vesting.sol",
  "abi": [
    {
      "inputs": [],
      "stateMutability": "nonpayable",
      "type": "constructor"
    },
    {
      "inputs": [
        {
          "internalType": "address",
          "name": "target",
          "type": "address"
        }
      ],
      "name": "AddressEmptyCode",
      "type": "error"
    },
    {
      "inputs": [
        {
          "internalType": "address",
          "name": "implementation",
          "type": "address"
        }
      ],
      "name": "ERC1967InvalidImplementation",
      "type": "error"
    },
    {
      "inputs": [],
      "name": "ERC1967NonPayable",
      "type": "error"
    },
    {
      "inputs": [],
      "name": "FailedCall",
      "type": "error"
    },
    {
      "inputs": [],
      "name": "FailedWithdraw",
      "type": "error"
    },
    {
      "inputs": [
        {
          "internalType": "uint256",
          "name": "balance",
          "type": "uint256"
        }
      ],
      "name": "InsufficientOwnerBalance",
      "type": "error"
    },
    {
      "inputs": [
        {
          "internalType": "uint256",
          "name": "vestingBalance",
          "type": "uint256"
        }
      ],
      "name": "InsufficientSupply",
      "type": "error"
    },
    {
      "inputs": [],
      "name": "InvalidEthQty",
      "type": "error"
    },
    {
      "inputs": [],
      "name": "InvalidInitialization",
      "type": "error"
    },
    {
      "inputs": [],
      "name": "InvalidUsdQty",
      "type": "error"
    },
    {
      "inputs": [
        {
          "internalType": "uint256",
          "name": "allowedTime",
          "type": "uint256"
        }
      ],
      "name": "InvalidWithdrawalTime",
      "type": "error"
    },
    {
      "inputs": [],
      "name": "IvalidAccount",
      "type": "error"
    },
    {
      "inputs": [],
      "name": "IvalidOrderNumber",
      "type": "error"
    },
    {
      "inputs": [],
      "name": "IvalidVestingAmount",
      "type": "error"
    },
    {
      "inputs": [],
      "name": "NotInitializing",
      "type": "error"
    },
    {
      "inputs": [],
      "name": "OrderNumberIsUsed",
      "type": "error"
    },
    {
      "inputs": [
        {
          "internalType": "address",
          "name": "owner",
          "type": "address"
        }
      ],
      "name": "OwnableInvalidOwner",
      "type": "error"
    },
    {
      "inputs": [
        {
          "internalType": "address",
          "name": "account",
          "type": "address"
        }
      ],
      "name": "OwnableUnauthorizedAccount",
      "type": "error"
    },
    {
      "inputs": [],
      "name": "TransferFailed",
      "type": "error"
    },
    {
      "inputs": [],
      "name": "UUPSUnauthorizedCallContext",
      "type": "error"
    },
    {
      "inputs": [
        {
          "internalType": "bytes32",
          "name": "slot",
          "type": "bytes32"
        }
      ],
      "name": "UUPSUnsupportedProxiableUUID",
      "type": "error"
    },
    {
      "inputs": [],
      "name": "UnauthorizedAccount",
      "type": "error"
    },
    {
      "inputs": [],
      "name": "VestingAlreadyClaimed",
      "type": "error"
    },
    {
      "anonymous": false,
      "inputs": [
        {
          "indexed": false,
          "internalType": "address",
          "name": "sender",
          "type": "address"
        },
        {
          "indexed": false,
          "internalType": "uint256",
          "name": "coinQty",
          "type": "uint256"
        },
        {
          "indexed": false,
          "internalType": "int256",
          "name": "amountOfUSD",
          "type": "int256"
        },
        {
          "indexed": false,
          "internalType": "int256",
          "name": "amountOfAPR",
          "type": "int256"
        }
      ],
      "name": "ClaimVest",
      "type": "event"
    },
    {
      "anonymous": false,
      "inputs": [
        {
          "indexed": false,
          "internalType": "address",
          "name": "buyer",
          "type": "address"
        },
        {
          "indexed": false,
          "internalType": "uint256",
          "name": "amountOfETH",
          "type": "uint256"
        },
        {
          "indexed": false,
          "internalType": "int256",
          "name": "amountOfUSD",
          "type": "int256"
        },
        {
          "indexed": false,
          "internalType": "int256",
          "name": "amountOfAPR",
          "type": "int256"
        },
        {
          "indexed": false,
          "internalType": "uint256",
          "name": "lockTime",
          "type": "uint256"
        }
      ],
      "name": "CreateVest",
      "type": "event"
    },
    {
      "anonymous": false,
      "inputs": [
        {
          "indexed": false,
          "internalType": "uint64",
          "name": "version",
          "type": "uint64"
        }
      ],
      "name": "Initialized",
      "type": "event"
    },
    {
      "anonymous": false,
      "inputs": [
        {
          "indexed": true,
          "internalType": "address",
          "name": "previousOwner",
          "type": "address"
        },
        {
          "indexed": true,
          "internalType": "address",
          "name": "newOwner",
          "type": "address"
        }
      ],
      "name": "OwnershipTransferred",
      "type": "event"
    },
    {
      "anonymous": false,
      "inputs": [
        {
          "indexed": true,
          "internalType": "address",
          "name": "implementation",
          "type": "address"
        }
      ],
      "name": "Upgraded",
      "type": "event"
    },
    {
      "inputs": [],
      "name": "APR_RATE",
      "outputs": [
        {
          "internalType": "int256",
          "name": "",
          "type": "int256"
        }
      ],
      "stateMutability": "view",
      "type": "function"
    },
    {
      "inputs": [],
      "name": "PERCENTAGE_DECIMAL",
      "outputs": [
        {
          "internalType": "int256",
          "name": "",
          "type": "int256"
        }
      ],
      "stateMutability": "view",
      "type": "function"
    },
    {
      "inputs": [],
      "name": "PRICE_FEED_DECIMAL",
      "outputs": [
        {
          "internalType": "int256",
          "name": "",
          "type": "int256"
        }
      ],
      "stateMutability": "view",
      "type": "function"
    },
    {
      "inputs": [],
      "name": "UPGRADE_INTERFACE_VERSION",
      "outputs": [
        {
          "internalType": "string",
          "name": "",
          "type": "string"
        }
      ],
      "stateMutability": "view",
      "type": "function"
    },
    {
      "inputs": [
        {
          "internalType": "uint256",
          "name": "",
          "type": "uint256"
        }
      ],
      "name": "VestingData",
      "outputs": [
        {
          "internalType": "int256",
          "name": "amount",
          "type": "int256"
        },
        {
          "internalType": "int256",
          "name": "aprAmount",
          "type": "int256"
        },
        {
          "internalType": "uint256",
          "name": "lockUpTime",
          "type": "uint256"
        },
        {
          "internalType": "uint256",
          "name": "coinClaimed",
          "type": "uint256"
        },
        {
          "internalType": "uint256",
          "name": "claimTime",
          "type": "uint256"
        },
        {
          "internalType": "bool",
          "name": "claimStatus",
          "type": "bool"
        }
      ],
      "stateMutability": "view",
      "type": "function"
    },
    {
      "inputs": [
        {
          "internalType": "address",
          "name": "",
          "type": "address"
        },
        {
          "internalType": "uint256",
          "name": "",
          "type": "uint256"
        }
      ],
      "name": "Vests",
      "outputs": [
        {
          "internalType": "address",
          "name": "userAddress",
          "type": "address"
        },
        {
          "internalType": "uint256",
          "name": "order",
          "type": "uint256"
        },
        {
          "internalType": "uint256",
          "name": "dataID",
          "type": "uint256"
        },
        {
          "internalType": "bool",
          "name": "isInitialized",
          "type": "bool"
        }
      ],
      "stateMutability": "view",
      "type": "function"
    },
    {
      "inputs": [
        {
          "internalType": "uint256",
          "name": "orderNumber",
          "type": "uint256"
        },
        {
          "internalType": "int256",
          "name": "amount",
          "type": "int256"
        },
        {
          "internalType": "int256",
          "name": "apr",
          "type": "int256"
        },
        {
          "internalType": "uint256",
          "name": "lockUpTime",
          "type": "uint256"
        },
        {
          "internalType": "uint256",
          "name": "claimTime",
          "type": "uint256"
        },
        {
          "internalType": "uint256",
          "name": "coinClaimed",
          "type": "uint256"
        }
      ],
      "name": "buildVest",
      "outputs": [],
      "stateMutability": "payable",
      "type": "function"
    },
    {
      "inputs": [
        {
          "internalType": "uint256",
          "name": "order",
          "type": "uint256"
        }
      ],
      "name": "checkVestOrderExist",
      "outputs": [
        {
          "internalType": "bool",
          "name": "",
          "type": "bool"
        }
      ],
      "stateMutability": "view",
      "type": "function"
    },
    {
      "inputs": [
        {
          "internalType": "uint256",
          "name": "orderNumber",
          "type": "uint256"
        }
      ],
      "name": "claimVest",
      "outputs": [
        {
          "internalType": "uint256",
          "name": "",
          "type": "uint256"
        }
      ],
      "stateMutability": "payable",
      "type": "function"
    },
    {
      "inputs": [
        {
          "internalType": "uint256",
          "name": "orderNumber",
          "type": "uint256"
        }
      ],
      "name": "createVest",
      "outputs": [
        {
          "internalType": "int256",
          "name": "",
          "type": "int256"
        },
        {
          "internalType": "int256",
          "name": "",
          "type": "int256"
        },
        {
          "internalType": "uint256",
          "name": "",
          "type": "uint256"
        }
      ],
      "stateMutability": "payable",
      "type": "function"
    },
    {
      "inputs": [],
      "name": "dataIncrement",
      "outputs": [
        {
          "internalType": "uint256",
          "name": "",
          "type": "uint256"
        }
      ],
      "stateMutability": "view",
      "type": "function"
    },
    {
      "inputs": [
        {
          "internalType": "int256",
          "name": "total",
          "type": "int256"
        }
      ],
      "name": "getCoinQtyByUSD",
      "outputs": [
        {
          "internalType": "uint256",
          "name": "",
          "type": "uint256"
        }
      ],
      "stateMutability": "view",
      "type": "function"
    },
    {
      "inputs": [
        {
          "internalType": "int256",
          "name": "usdQty",
          "type": "int256"
        }
      ],
      "name": "getETHAmount",
      "outputs": [
        {
          "internalType": "int256",
          "name": "",
          "type": "int256"
        },
        {
          "internalType": "int256",
          "name": "",
          "type": "int256"
        }
      ],
      "stateMutability": "view",
      "type": "function"
    },
    {
      "inputs": [],
      "name": "getMyCoinUSD",
      "outputs": [
        {
          "internalType": "int256",
          "name": "",
          "type": "int256"
        }
      ],
      "stateMutability": "view",
      "type": "function"
    },
    {
      "inputs": [],
      "name": "getPriceMyCoinperUSD",
      "outputs": [
        {
          "internalType": "int256",
          "name": "",
          "type": "int256"
        }
      ],
      "stateMutability": "view",
      "type": "function"
    },
    {
      "inputs": [],
      "name": "getPriceUSDperETH",
      "outputs": [
        {
          "internalType": "int256",
          "name": "",
          "type": "int256"
        }
      ],
      "stateMutability": "view",
      "type": "function"
    },
    {
      "inputs": [
        {
          "internalType": "int256",
          "name": "ethQty",
          "type": "int256"
        }
      ],
      "name": "getUSDAmount",
      "outputs": [
        {
          "internalType": "int256",
          "name": "",
          "type": "int256"
        },
        {
          "internalType": "int256",
          "name": "",
          "type": "int256"
        }
      ],
      "stateMutability": "view",
      "type": "function"
    },
    {
      "inputs": [
        {
          "internalType": "uint256",
          "name": "orderNumber",
          "type": "uint256"
        }
      ],
      "name": "getVest",
      "outputs": [
        {
          "internalType": "int256",
          "name": "",
          "type": "int256"
        },
        {
          "internalType": "int256",
          "name": "",
          "type": "int256"
        },
        {
          "internalType": "uint256",
          "name": "",
          "type": "uint256"
        },
        {
          "internalType": "uint256",
          "name": "",
          "type": "uint256"
        },
        {
          "internalType": "uint256",
          "name": "",
          "type": "uint256"
        },
        {
          "internalType": "bool",
          "name": "",
          "type": "bool"
        }
      ],
      "stateMutability": "view",
      "type": "function"
    },
    {
      "inputs": [
        {
          "internalType": "uint256",
          "name": "orderNumber",
          "type": "uint256"
        }
      ],
      "name": "getVestDataID",
      "outputs": [
        {
          "internalType": "bool",
          "name": "",
          "type": "bool"
        },
        {
          "internalType": "uint256",
          "name": "",
          "type": "uint256"
        }
      ],
      "stateMutability": "view",
      "type": "function"
    },
    {
      "inputs": [
        {
          "internalType": "address",
          "name": "dorzProxy",
          "type": "address"
        },
        {
          "internalType": "address",
          "name": "EthtoUsd",
          "type": "address"
        },
        {
          "internalType": "address",
          "name": "MyCoinperUSD",
          "type": "address"
        }
      ],
      "name": "initialize",
      "outputs": [],
      "stateMutability": "nonpayable",
      "type": "function"
    },
    {
      "inputs": [],
      "name": "myCoinUsdPrice",
      "outputs": [
        {
          "internalType": "int256",
          "name": "",
          "type": "int256"
        }
      ],
      "stateMutability": "view",
      "type": "function"
    },
    {
      "inputs": [],
      "name": "myToken",
      "outputs": [
        {
          "internalType": "contract Dorz",
          "name": "",
          "type": "address"
        }
      ],
      "stateMutability": "view",
      "type": "function"
    },
    {
      "inputs": [],
      "name": "owner",
      "outputs": [
        {
          "internalType": "address",
          "name": "",
          "type": "address"
        }
      ],
      "stateMutability": "view",
      "type": "function"
    },
    {
      "inputs": [],
      "name": "proxiableUUID",
      "outputs": [
        {
          "internalType": "bytes32",
          "name": "",
          "type": "bytes32"
        }
      ],
      "stateMutability": "view",
      "type": "function"
    },
    {
      "inputs": [],
      "name": "renounceOwnership",
      "outputs": [],
      "stateMutability": "nonpayable",
      "type": "function"
    },
    {
      "inputs": [
        {
          "internalType": "address",
          "name": "newOwner",
          "type": "address"
        }
      ],
      "name": "transferOwnership",
      "outputs": [],
      "stateMutability": "nonpayable",
      "type": "function"
    },
    {
      "inputs": [
        {
          "internalType": "address",
          "name": "newImplementation",
          "type": "address"
        },
        {
          "internalType": "bytes",
          "name": "data",
          "type": "bytes"
        }
      ],
      "name": "upgradeToAndCall",
      "outputs": [],
      "stateMutability": "payable",
      "type": "function"
    },
    {
      "inputs": [],
      "name": "usdEthPrice",
      "outputs": [
        {
          "internalType": "int256",
          "name": "",
          "type": "int256"
        }
      ],
      "stateMutability": "view",
      "type": "function"
    },
    {
      "inputs": [],
      "name": "vdETHBalance",
      "outputs": [
        {
          "internalType": "uint256",
          "name": "tokenAmount",
          "type": "uint256"
        }
      ],
      "stateMutability": "view",
      "type": "function"
    },
    {
      "inputs": [],
      "name": "withdraw",
      "outputs": [],
      "stateMutability": "nonpayable",
      "type": "function"
    },
    {
      "stateMutability": "payable",
      "type": "receive"
    }
  ],
  "bytecode": "0x60a060405230608052348015610013575f5ffd5b5061001c610021565b6100d3565b7ff0c57e16840df040f15088dc2f81fe391c3923bec73e23a9662efc9c229c6a00805468010000000000000000900460ff16156100715760405163f92ee8a960e01b815260040160405180910390fd5b80546001600160401b03908116146100d05780546001600160401b0319166001600160401b0390811782556040519081527fc7f505b2f371ae2175ee4913f4499e1f2633a7b5936321eed1cdaeb6115181d29060200160405180910390a15b50565b6080516119a86100f95f395f81816111670152818161119001526112d401526119a85ff3fe6080604052600436106101c8575f3560e01c80638da5cb5b116100f2578063ad3cb1cc11610092578063cc3fe4ba11610062578063cc3fe4ba146105d4578063d83cb40114610608578063e2ce355714610627578063f2fde38b1461063b575f5ffd5b8063ad3cb1cc14610546578063b8fcf93714610583578063c0c53b8b146105a1578063c7bfeac2146105c0575f5ffd5b80639c209dc4116100cd5780639c209dc4146104be578063a3eebb4d146104d3578063a6440cc7146104e6578063acd5dc8114610532575f5ffd5b80638da5cb5b146103d65780638dfd3d151461042657806391722351146104aa575f5ffd5b806349673d9811610168578063686c7f7e11610138578063686c7f7e1461037c5780636ab8eab41461038f578063715018a6146103ae57806376e0e2ab146103c2575f5ffd5b806349673d98146102be5780634f1ef2861461033e57806352d1902d146103515780635467916f14610365575f5ffd5b80631e9be6a1116101a35780631e9be6a114610248578063255c29ed1461025d5780632d647842146102935780633ccfd60b146102a8575f5ffd5b806308b4bd63146101d3578063092405d914610206578063098c27dc14610233575f5ffd5b366101cf57005b5f5ffd5b6101e66101e13660046115d3565b61065a565b604080519384526020840192909252908201526060015b60405180910390f35b348015610211575f5ffd5b506102256102203660046115d3565b61076e565b6040519081526020016101fd565b34801561023e575f5ffd5b5061022560045481565b348015610253575f5ffd5b5061022560035481565b348015610268575f5ffd5b5061027c6102773660046115d3565b61079d565b6040805192151583526020830191909152016101fd565b34801561029e575f5ffd5b5061022560055481565b3480156102b3575f5ffd5b506102bc610805565b005b3480156102c9575f5ffd5b5061030f6102d83660046115d3565b60086020525f9081526040902080546001820154600283015460038401546004850154600590950154939492939192909160ff1686565b6040805196875260208701959095529385019290925260608401526080830152151560a082015260c0016101fd565b6102bc61034c366004611619565b6108a2565b34801561035c575f5ffd5b506102256108bd565b348015610370575f5ffd5b506102256305f5e10081565b6102bc61038a3660046116dd565b6108d8565b34801561039a575f5ffd5b5061030f6103a93660046115d3565b610a49565b3480156103b9575f5ffd5b506102bc610abd565b3480156103cd575f5ffd5b50610225610ad0565b3480156103e1575f5ffd5b507f9016d09d72d40fdae2fd8ceac6b6234c7706214fd39c1cd1e609a0528c199300546001600160a01b03165b6040516001600160a01b0390911681526020016101fd565b348015610431575f5ffd5b5061047e61044036600461171c565b600760209081525f928352604080842090915290825290208054600182015460028301546003909301546001600160a01b0390921692909160ff1684565b604080516001600160a01b039095168552602085019390935291830152151560608201526080016101fd565b3480156104b5575f5ffd5b50600454610225565b3480156104c9575f5ffd5b5061022560065481565b6102256104e13660046115d3565b610b55565b3480156104f1575f5ffd5b506105226105003660046115d3565b335f908152600760209081526040808320938352929052206003015460ff1690565b60405190151581526020016101fd565b34801561053d575f5ffd5b50610225606481565b348015610551575f5ffd5b50610576604051806040016040528060058152602001640352e302e360dc1b81525081565b6040516101fd9190611744565b34801561058e575f5ffd5b505f5461040e906001600160a01b031681565b3480156105ac575f5ffd5b506102bc6105bb366004611779565b610dd2565b3480156105cb575f5ffd5b50610225610f3d565b3480156105df575f5ffd5b506105f36105ee3660046115d3565b610f4b565b604080519283526020830191909152016101fd565b348015610613575f5ffd5b506105f36106223660046115d3565b610fdf565b348015610632575f5ffd5b50610225611043565b348015610646575f5ffd5b506102bc6106553660046117b9565b6110c4565b5f5f5f600134101561067f57604051633274195d60e21b815260040160405180910390fd5b60018410156106a15760405163256ea80f60e01b815260040160405180910390fd5b335f90815260076020908152604080832087845290915290206003015460ff1680156106df5760405162a7fdb360e21b815260040160405180910390fd5b345f806106eb83610f4b565b90925090505f6106fe62015180426117e6565b90505f5f6107108b86868686866108d8565b6040805133815234602082015290810186905260608101859052608081018490527f4726b94833d3f479e9d83d0d29477561a80f7995e6aa6bef71ab87168060b0319060a00160405180910390a15092999198509650945050505050565b5f5f61077960045490565b90505f6305f5e10061078b83866117f9565b6107959190611828565b949350505050565b5f5f5f5f6107c785335f908152600760209081526040808320938352929052206003015460ff1690565b905080156107fa575050335f90815260076020908152604080832095835294905292909220600201546001939092509050565b505f94909350915050565b61080d611101565b47600181101561083857604051630d9b2d2f60e21b8152600481018290526024015b60405180910390fd5b6040515f90339047908381818185875af1925050503d805f8114610877576040519150601f19603f3d011682016040523d82523d5f602084013e61087c565b606091505b505090508061089e5760405163e1afaf6560e01b815260040160405180910390fd5b5050565b6108aa61115c565b6108b382611200565b61089e8282611208565b5f6108c66112c9565b505f5160206119535f395f51905f5290565b60068054905f6108e783611860565b91905055506040518060800160405280336001600160a01b0316815260200187815260200160065481526020016001151581525060075f336001600160a01b03166001600160a01b031681526020019081526020015f205f8881526020019081526020015f205f820151815f015f6101000a8154816001600160a01b0302191690836001600160a01b0316021790555060208201518160010155604082015181600201556060820151816003015f6101000a81548160ff0219169083151502179055509050506040518060c001604052808681526020018581526020018481526020018281526020018381526020015f151581525060085f60065481526020019081526020015f205f820151815f01556020820151816001015560408201518160020155606082015181600301556080820151816004015560a0820151816005015f6101000a81548160ff021916908315150217905550905050505050505050565b5f5f5f5f5f5f5f5f610a5a8961079d565b9150915081610a7c5760405163614de84160e11b815260040160405180910390fd5b5f90815260086020526040902080546001820154600283015460038401546004850154600590950154939d929c50909a50985091965060ff16945092505050565b610ac5611101565b610ace5f611312565b565b5f80546040516370a0823160e01b815233600482015282916001600160a01b0316906370a0823190602401602060405180830381865afa158015610b16573d5f5f3e3d5ffd5b505050506040513d601f19601f82011682018060405250810190610b3a9190611878565b90505f610b4660045490565b90505f606461078b8385611828565b5f5f5f610b618461079d565b9150915081610b83576040516354bff84560e11b815260040160405180910390fd5b5f8181526008602052604090206005015460ff1615610bb55760405163493c09f760e01b815260040160405180910390fd5b5f81815260086020526040902060020154421015610bfc575f8181526008602052604090819020600201549051630339a1e760e01b8152600481019190915260240161082f565b5f81815260086020526040812060018101549054610c1a919061188f565b90505f610c268261076e565b5f80546040516370a0823160e01b815230600482015292935090916001600160a01b03909116906370a0823190602401602060405180830381865afa158015610c71573d5f5f3e3d5ffd5b505050506040513d601f19601f82011682018060405250810190610c959190611878565b905081811015610cbb57604051631422cd3360e11b81526004810182905260240161082f565b5f805460405163a9059cbb60e01b8152336004820152602481018590526001600160a01b039091169063a9059cbb906044016020604051808303815f875af1158015610d09573d5f5f3e3d5ffd5b505050506040513d601f19601f82011682018060405250810190610d2d91906118b6565b905080610d4d576040516312171d8360e31b815260040160405180910390fd5b5f858152600860209081526040918290206003810186905542600482015560058101805460ff19166001908117909155815491015483513381529283018790529282015260608101919091527f359727b825bd62f8daf7f382d9f26394cdb4527fc4b7334b7f4964dbdd116c499060800160405180910390a150909695505050505050565b5f610ddb611382565b805490915060ff600160401b820416159067ffffffffffffffff165f81158015610e025750825b90505f8267ffffffffffffffff166001148015610e1e5750303b155b905081158015610e2c575080155b15610e4a5760405163f92ee8a960e01b815260040160405180910390fd5b845467ffffffffffffffff191660011785558315610e7457845460ff60401b1916600160401b1785555b610e7d336113ac565b610e8d6305f5e1006103e86117f9565b600355610e9f6305f5e10060646117f9565b600455610eae606460146117f9565b6005555f6006819055600180546001600160a01b03808b166001600160a01b031992831617909255600280548a84169083161790558254918b1691161790558315610f3357845460ff60401b19168555604051600181527fc7f505b2f371ae2175ee4913f4499e1f2633a7b5936321eed1cdaeb6115181d29060200160405180910390a15b5050505050505050565b5f610f46611101565b504790565b5f5f6001831215610f6f57604051635779d3b160e11b815260040160405180910390fd5b5f610f78611043565b90505f6305f5e100610f8a86846117f9565b610f949190611828565b90505f6305f5e100610fa76064806117f9565b600554610fb489876117f9565b610fbe91906117f9565b610fc89190611828565b610fd29190611828565b9196919550909350505050565b5f5f6001831215611003576040516369ea77af60e11b815260040160405180910390fd5b5f61100c611043565b90505f8161101e6305f5e100876117f9565b6110289190611828565b90505f6110366064806117f9565b600554610fc890886117f9565b5f5f60015f9054906101000a90046001600160a01b03166001600160a01b031663feaf968c6040518163ffffffff1660e01b815260040160a060405180830381865afa158015611095573d5f5f3e3d5ffd5b505050506040513d601f19601f820116820180604052508101906110b991906118ee565b509195945050505050565b6110cc611101565b6001600160a01b0381166110f557604051631e4fbdf760e01b81525f600482015260240161082f565b6110fe81611312565b50565b336111337f9016d09d72d40fdae2fd8ceac6b6234c7706214fd39c1cd1e609a0528c199300546001600160a01b031690565b6001600160a01b031614610ace5760405163118cdaa760e01b815233600482015260240161082f565b306001600160a01b037f00000000000000000000000000000000000000000000000000000000000000001614806111e257507f00000000000000000000000000000000000000000000000000000000000000006001600160a01b03166111d65f5160206119535f395f51905f52546001600160a01b031690565b6001600160a01b031614155b15610ace5760405163703e46dd60e11b815260040160405180910390fd5b6110fe611101565b816001600160a01b03166352d1902d6040518163ffffffff1660e01b8152600401602060405180830381865afa925050508015611262575060408051601f3d908101601f1916820190925261125f91810190611878565b60015b61128a57604051634c9c8ce360e01b81526001600160a01b038316600482015260240161082f565b5f5160206119535f395f51905f5281146112ba57604051632a87526960e21b81526004810182905260240161082f565b6112c483836113bd565b505050565b306001600160a01b037f00000000000000000000000000000000000000000000000000000000000000001614610ace5760405163703e46dd60e11b815260040160405180910390fd5b7f9016d09d72d40fdae2fd8ceac6b6234c7706214fd39c1cd1e609a0528c19930080546001600160a01b031981166001600160a01b03848116918217845560405192169182907f8be0079c531659141344cd1fd0a4f28419497f9722a3daafe3b4186f6b6457e0905f90a3505050565b5f807ff0c57e16840df040f15088dc2f81fe391c3923bec73e23a9662efc9c229c6a005b92915050565b6113b4611412565b6110fe81611437565b6113c68261143f565b6040516001600160a01b038316907fbc7cd75a20ee27fd9adebab32041f755214dbc6bffa90cc0225b39da2e5c2d3b905f90a280511561140a576112c482826114a2565b61089e611514565b61141a611533565b610ace57604051631afcd79f60e31b815260040160405180910390fd5b6110cc611412565b806001600160a01b03163b5f0361147457604051634c9c8ce360e01b81526001600160a01b038216600482015260240161082f565b5f5160206119535f395f51905f5280546001600160a01b0319166001600160a01b0392909216919091179055565b60605f5f846001600160a01b0316846040516114be919061193c565b5f60405180830381855af49150503d805f81146114f6576040519150601f19603f3d011682016040523d82523d5f602084013e6114fb565b606091505b509150915061150b85838361154c565b95945050505050565b3415610ace5760405163b398979f60e01b815260040160405180910390fd5b5f61153c611382565b54600160401b900460ff16919050565b6060826115615761155c826115ab565b6115a4565b815115801561157857506001600160a01b0384163b155b156115a157604051639996b31560e01b81526001600160a01b038516600482015260240161082f565b50805b9392505050565b8051156115ba57805160208201fd5b60405163d6bda27560e01b815260040160405180910390fd5b5f602082840312156115e3575f5ffd5b5035919050565b80356001600160a01b0381168114611600575f5ffd5b919050565b634e487b7160e01b5f52604160045260245ffd5b5f5f6040838503121561162a575f5ffd5b611633836115ea565b9150602083013567ffffffffffffffff81111561164e575f5ffd5b8301601f8101851361165e575f5ffd5b803567ffffffffffffffff81111561167857611678611605565b604051601f8201601f19908116603f0116810167ffffffffffffffff811182821017156116a7576116a7611605565b6040528181528282016020018710156116be575f5ffd5b816020840160208301375f602083830101528093505050509250929050565b5f5f5f5f5f5f60c087890312156116f2575f5ffd5b505084359660208601359650604086013595606081013595506080810135945060a0013592509050565b5f5f6040838503121561172d575f5ffd5b611736836115ea565b946020939093013593505050565b602081525f82518060208401528060208501604085015e5f604082850101526040601f19601f83011684010191505092915050565b5f5f5f6060848603121561178b575f5ffd5b611794846115ea565b92506117a2602085016115ea565b91506117b0604085016115ea565b90509250925092565b5f602082840312156117c9575f5ffd5b6115a4826115ea565b634e487b7160e01b5f52601160045260245ffd5b818103818111156113a6576113a66117d2565b8082025f8212600160ff1b84141615611814576118146117d2565b81810583148215176113a6576113a66117d2565b5f8261184257634e487b7160e01b5f52601260045260245ffd5b600160ff1b82145f198414161561185b5761185b6117d2565b500590565b5f60018201611871576118716117d2565b5060010190565b5f60208284031215611888575f5ffd5b5051919050565b8082018281125f8312801582168215821617156118ae576118ae6117d2565b505092915050565b5f602082840312156118c6575f5ffd5b815180151581146115a4575f5ffd5b805169ffffffffffffffffffff81168114611600575f5ffd5b5f5f5f5f5f60a08688031215611902575f5ffd5b61190b866118d5565b60208701516040880151606089015192975090955093509150611930608087016118d5565b90509295509295909350565b5f82518060208501845e5f92019182525091905056fe360894a13ba1a3210667c828492db98dca3e2076cc3735a920a3ca505d382bbca2646970667358221220b3a2a3210eadadcca70330a050fea16e38e6e12f2fb3441a014e42bf0e8add0b64736f6c634300081c0033",
  "linkReferences": {},
  "deployedLinkReferences": {},
  "immutableReferences": {
    "1659": [
      {
        "length": 32,
        "start": 4455
      },
      {
        "length": 32,
        "start": 4496
      },
      {
        "length": 32,
        "start": 4820
      }
    ]
  },
  "inputSourceName": "project/contracts/Vesting.sol",
  "buildInfoId": "solc-0_8_28-827170da8041a07d41ce8e90804daef12b4ae47f"
}